{
  "_format": "hh-sol-artifact-1",
  "contractName": "profile",
  "sourceName": "contracts/profile.sol",
  "abi": [
    {
      "inputs": [
        {
          "internalType": "string",
          "name": "_name",
          "type": "string"
        },
        {
          "internalType": "string",
          "name": "_email",
          "type": "string"
        }
      ],
      "stateMutability": "nonpayable",
      "type": "constructor"
    },
    {
      "inputs": [],
      "name": "email",
      "outputs": [
        {
          "internalType": "string",
          "name": "",
          "type": "string"
        }
      ],
      "stateMutability": "view",
      "type": "function"
    },
    {
      "inputs": [],
      "name": "isOwner",
      "outputs": [
        {
          "internalType": "bool",
          "name": "",
          "type": "bool"
        }
      ],
      "stateMutability": "view",
      "type": "function"
    },
    {
      "inputs": [],
      "name": "name",
      "outputs": [
        {
          "internalType": "string",
          "name": "",
          "type": "string"
        }
      ],
      "stateMutability": "view",
      "type": "function"
    },
    {
      "inputs": [
        {
          "internalType": "string",
          "name": "_name",
          "type": "string"
        },
        {
          "internalType": "string",
          "name": "_email",
          "type": "string"
        }
      ],
      "name": "setProfile",
      "outputs": [],
      "stateMutability": "nonpayable",
      "type": "function"
    }
  ],
  "bytecode": "0x60806040523480156200001157600080fd5b5060405162000f1c38038062000f1c833981810160405281019062000037919062000236565b336000806101000a81548173ffffffffffffffffffffffffffffffffffffffff021916908373ffffffffffffffffffffffffffffffffffffffff160217905550816001908162000088919062000506565b5080600290816200009a919062000506565b505050620005ed565b6000604051905090565b600080fd5b600080fd5b600080fd5b600080fd5b6000601f19601f8301169050919050565b7f4e487b7100000000000000000000000000000000000000000000000000000000600052604160045260246000fd5b6200010c82620000c1565b810181811067ffffffffffffffff821117156200012e576200012d620000d2565b5b80604052505050565b600062000143620000a3565b905062000151828262000101565b919050565b600067ffffffffffffffff821115620001745762000173620000d2565b5b6200017f82620000c1565b9050602081019050919050565b60005b83811015620001ac5780820151818401526020810190506200018f565b60008484015250505050565b6000620001cf620001c98462000156565b62000137565b905082815260208101848484011115620001ee57620001ed620000bc565b5b620001fb8482856200018c565b509392505050565b600082601f8301126200021b576200021a620000b7565b5b81516200022d848260208601620001b8565b91505092915050565b6000806040838503121562000250576200024f620000ad565b5b600083015167ffffffffffffffff811115620002715762000270620000b2565b5b6200027f8582860162000203565b925050602083015167ffffffffffffffff811115620002a357620002a2620000b2565b5b620002b18582860162000203565b9150509250929050565b600081519050919050565b7f4e487b7100000000000000000000000000000000000000000000000000000000600052602260045260246000fd5b600060028204905060018216806200030e57607f821691505b602082108103620003245762000323620002c6565b5b50919050565b60008190508160005260206000209050919050565b60006020601f8301049050919050565b600082821b905092915050565b6000600883026200038e7fffffffffffffffffffffffffffffffffffffffffffffffffffffffffffffffff826200034f565b6200039a86836200034f565b95508019841693508086168417925050509392505050565b6000819050919050565b6000819050919050565b6000620003e7620003e1620003db84620003b2565b620003bc565b620003b2565b9050919050565b6000819050919050565b6200040383620003c6565b6200041b6200041282620003ee565b8484546200035c565b825550505050565b600090565b6200043262000423565b6200043f818484620003f8565b505050565b5b8181101562000467576200045b60008262000428565b60018101905062000445565b5050565b601f821115620004b65762000480816200032a565b6200048b846200033f565b810160208510156200049b578190505b620004b3620004aa856200033f565b83018262000444565b50505b505050565b600082821c905092915050565b6000620004db60001984600802620004bb565b1980831691505092915050565b6000620004f68383620004c8565b9150826002028217905092915050565b6200051182620002bb565b67ffffffffffffffff8111156200052d576200052c620000d2565b5b620005398254620002f5565b620005468282856200046b565b600060209050601f8311600181146200057e576000841562000569578287015190505b620005758582620004e8565b865550620005e5565b601f1984166200058e866200032a565b60005b82811015620005b85784890151825560018201915060208501945060208101905062000591565b86831015620005d85784890151620005d4601f891682620004c8565b8355505b6001600288020188555050505b505050505050565b61091f80620005fd6000396000f3fe608060405234801561001057600080fd5b506004361061004c5760003560e01c806306fdde0314610051578063719e37ae1461006f578063820e93f51461008b5780638f32d59b146100a9575b600080fd5b6100596100c7565b604051610066919061037c565b60405180910390f35b610089600480360381019061008491906104e7565b610155565b005b610093610207565b6040516100a0919061037c565b60405180910390f35b6100b1610295565b6040516100be919061057a565b60405180910390f35b600180546100d4906105c4565b80601f0160208091040260200160405190810160405280929190818152602001828054610100906105c4565b801561014d5780601f106101225761010080835404028352916020019161014d565b820191906000526020600020905b81548152906001019060200180831161013057829003601f168201915b505050505081565b60008054906101000a900473ffffffffffffffffffffffffffffffffffffffff1673ffffffffffffffffffffffffffffffffffffffff163373ffffffffffffffffffffffffffffffffffffffff16146101e3576040517f08c379a00000000000000000000000000000000000000000000000000000000081526004016101da90610641565b60405180910390fd5b81600190816101f29190610817565b5080600290816102029190610817565b505050565b60028054610214906105c4565b80601f0160208091040260200160405190810160405280929190818152602001828054610240906105c4565b801561028d5780601f106102625761010080835404028352916020019161028d565b820191906000526020600020905b81548152906001019060200180831161027057829003601f168201915b505050505081565b60008060009054906101000a900473ffffffffffffffffffffffffffffffffffffffff1673ffffffffffffffffffffffffffffffffffffffff163373ffffffffffffffffffffffffffffffffffffffff1614905090565b600081519050919050565b600082825260208201905092915050565b60005b8381101561032657808201518184015260208101905061030b565b60008484015250505050565b6000601f19601f8301169050919050565b600061034e826102ec565b61035881856102f7565b9350610368818560208601610308565b61037181610332565b840191505092915050565b600060208201905081810360008301526103968184610343565b905092915050565b6000604051905090565b600080fd5b600080fd5b600080fd5b600080fd5b7f4e487b7100000000000000000000000000000000000000000000000000000000600052604160045260246000fd5b6103f482610332565b810181811067ffffffffffffffff82111715610413576104126103bc565b5b80604052505050565b600061042661039e565b905061043282826103eb565b919050565b600067ffffffffffffffff821115610452576104516103bc565b5b61045b82610332565b9050602081019050919050565b82818337600083830152505050565b600061048a61048584610437565b61041c565b9050828152602081018484840111156104a6576104a56103b7565b5b6104b1848285610468565b509392505050565b600082601f8301126104ce576104cd6103b2565b5b81356104de848260208601610477565b91505092915050565b600080604083850312156104fe576104fd6103a8565b5b600083013567ffffffffffffffff81111561051c5761051b6103ad565b5b610528858286016104b9565b925050602083013567ffffffffffffffff811115610549576105486103ad565b5b610555858286016104b9565b9150509250929050565b60008115159050919050565b6105748161055f565b82525050565b600060208201905061058f600083018461056b565b92915050565b7f4e487b7100000000000000000000000000000000000000000000000000000000600052602260045260246000fd5b600060028204905060018216806105dc57607f821691505b6020821081036105ef576105ee610595565b5b50919050565b7f4f6e6c7920436f6e74726163744f776e65722063616e20646f20746869732e00600082015250565b600061062b601f836102f7565b9150610636826105f5565b602082019050919050565b6000602082019050818103600083015261065a8161061e565b9050919050565b60008190508160005260206000209050919050565b60006020601f8301049050919050565b600082821b905092915050565b6000600883026106c37fffffffffffffffffffffffffffffffffffffffffffffffffffffffffffffffff82610686565b6106cd8683610686565b95508019841693508086168417925050509392505050565b6000819050919050565b6000819050919050565b600061071461070f61070a846106e5565b6106ef565b6106e5565b9050919050565b6000819050919050565b61072e836106f9565b61074261073a8261071b565b848454610693565b825550505050565b600090565b61075761074a565b610762818484610725565b505050565b5b818110156107865761077b60008261074f565b600181019050610768565b5050565b601f8211156107cb5761079c81610661565b6107a584610676565b810160208510156107b4578190505b6107c86107c085610676565b830182610767565b50505b505050565b600082821c905092915050565b60006107ee600019846008026107d0565b1980831691505092915050565b600061080783836107dd565b9150826002028217905092915050565b610820826102ec565b67ffffffffffffffff811115610839576108386103bc565b5b61084382546105c4565b61084e82828561078a565b600060209050601f831160018114610881576000841561086f578287015190505b61087985826107fb565b8655506108e1565b601f19841661088f86610661565b60005b828110156108b757848901518255600182019150602085019450602081019050610892565b868310156108d457848901516108d0601f8916826107dd565b8355505b6001600288020188555050505b50505050505056fea26469706673582212202e27414e27e2487120c3f021e63a6667479f80c8021de00945a957089319cd8f64736f6c63430008120033",
  "linkReferences": {},
  "deployedLinkReferences": {}
}