{
  "_format": "hh-sol-artifact-1",
  "contractName": "votingcampaign",
  "sourceName": "contracts/votingcampaign.sol",
  "abi": [
    {
      "inputs": [
        {
          "internalType": "string",
          "name": "_name",
          "type": "string"
        },
        {
          "internalType": "string",
          "name": "_description",
          "type": "string"
        },
        {
          "internalType": "uint256",
          "name": "_startDateTime",
          "type": "uint256"
        },
        {
          "internalType": "uint256",
          "name": "_endDateTime",
          "type": "uint256"
        }
      ],
      "stateMutability": "nonpayable",
      "type": "constructor"
    },
    {
      "inputs": [
        {
          "internalType": "string",
          "name": "_candidateName",
          "type": "string"
        }
      ],
      "name": "addCandidate",
      "outputs": [],
      "stateMutability": "nonpayable",
      "type": "function"
    },
    {
      "inputs": [
        {
          "internalType": "address",
          "name": "_voter",
          "type": "address"
        }
      ],
      "name": "addVoters",
      "outputs": [],
      "stateMutability": "nonpayable",
      "type": "function"
    },
    {
      "inputs": [],
      "name": "beginVoting",
      "outputs": [],
      "stateMutability": "nonpayable",
      "type": "function"
    },
    {
      "inputs": [],
      "name": "campaignDescription",
      "outputs": [
        {
          "internalType": "string",
          "name": "",
          "type": "string"
        }
      ],
      "stateMutability": "view",
      "type": "function"
    },
    {
      "inputs": [],
      "name": "campaignEndDateTime",
      "outputs": [
        {
          "internalType": "uint256",
          "name": "",
          "type": "uint256"
        }
      ],
      "stateMutability": "view",
      "type": "function"
    },
    {
      "inputs": [],
      "name": "campaignName",
      "outputs": [
        {
          "internalType": "string",
          "name": "",
          "type": "string"
        }
      ],
      "stateMutability": "view",
      "type": "function"
    },
    {
      "inputs": [],
      "name": "campaignStartDateTime",
      "outputs": [
        {
          "internalType": "uint256",
          "name": "",
          "type": "uint256"
        }
      ],
      "stateMutability": "view",
      "type": "function"
    },
    {
      "inputs": [
        {
          "internalType": "uint256",
          "name": "",
          "type": "uint256"
        }
      ],
      "name": "candidateIndex",
      "outputs": [
        {
          "internalType": "string",
          "name": "",
          "type": "string"
        }
      ],
      "stateMutability": "view",
      "type": "function"
    },
    {
      "inputs": [
        {
          "internalType": "string",
          "name": "",
          "type": "string"
        }
      ],
      "name": "candidates",
      "outputs": [
        {
          "internalType": "bool",
          "name": "isValid",
          "type": "bool"
        },
        {
          "internalType": "uint256",
          "name": "voteCount",
          "type": "uint256"
        }
      ],
      "stateMutability": "view",
      "type": "function"
    },
    {
      "inputs": [],
      "name": "finalwinner",
      "outputs": [
        {
          "internalType": "string",
          "name": "winnername_",
          "type": "string"
        },
        {
          "internalType": "uint256",
          "name": "voteCount_",
          "type": "uint256"
        }
      ],
      "stateMutability": "view",
      "type": "function"
    },
    {
      "inputs": [],
      "name": "isOwner",
      "outputs": [
        {
          "internalType": "bool",
          "name": "",
          "type": "bool"
        }
      ],
      "stateMutability": "view",
      "type": "function"
    },
    {
      "inputs": [
        {
          "internalType": "string",
          "name": "_candidateName",
          "type": "string"
        }
      ],
      "name": "makeVote",
      "outputs": [],
      "stateMutability": "nonpayable",
      "type": "function"
    },
    {
      "inputs": [],
      "name": "state",
      "outputs": [
        {
          "internalType": "enum votingcampaign.State",
          "name": "",
          "type": "uint8"
        }
      ],
      "stateMutability": "view",
      "type": "function"
    },
    {
      "inputs": [],
      "name": "stopVote",
      "outputs": [],
      "stateMutability": "nonpayable",
      "type": "function"
    },
    {
      "inputs": [],
      "name": "totalVoters",
      "outputs": [
        {
          "internalType": "uint256",
          "name": "",
          "type": "uint256"
        }
      ],
      "stateMutability": "view",
      "type": "function"
    },
    {
      "inputs": [],
      "name": "totalcandidates",
      "outputs": [
        {
          "internalType": "uint256",
          "name": "",
          "type": "uint256"
        }
      ],
      "stateMutability": "view",
      "type": "function"
    },
    {
      "inputs": [
        {
          "internalType": "uint256",
          "name": "",
          "type": "uint256"
        }
      ],
      "name": "voterIndex",
      "outputs": [
        {
          "internalType": "address",
          "name": "",
          "type": "address"
        }
      ],
      "stateMutability": "view",
      "type": "function"
    },
    {
      "inputs": [
        {
          "internalType": "address",
          "name": "",
          "type": "address"
        }
      ],
      "name": "voters",
      "outputs": [
        {
          "internalType": "bool",
          "name": "isValid",
          "type": "bool"
        },
        {
          "internalType": "bool",
          "name": "voted",
          "type": "bool"
        },
        {
          "internalType": "string",
          "name": "candidate",
          "type": "string"
        }
      ],
      "stateMutability": "view",
      "type": "function"
    }
  ],
  "bytecode": "0x608060405260006007556000600a553480156200001b57600080fd5b50604051620029a7380380620029a7833981810160405281019062000041919062000427565b336000806101000a81548173ffffffffffffffffffffffffffffffffffffffff021916908373ffffffffffffffffffffffffffffffffffffffff1602179055506000600b60006101000a81548160ff02191690836002811115620000aa57620000a9620004d7565b5b02179055506040518060400160405280600f81526020017f566f74696e672043616d706169676e000000000000000000000000000000000081525060019081620000f5919062000747565b506040518060400160405280601981526020017f54686973206973206120766f74696e672063616d706169676e00000000000000815250600290816200013c919062000747565b504260038190555062015180426200015591906200085d565b6004819055506040516020016200016c90620008cd565b60405160208183030381529060405280519060200120846040516020016200019591906200091b565b6040516020818303038152906040528051906020012014620001c4578360019081620001c2919062000747565b505b604051602001620001d590620008cd565b6040516020818303038152906040528051906020012083604051602001620001fe91906200091b565b60405160208183030381529060405280519060200120146200022d5782600290816200022b919062000747565b505b600082146200023e57816003819055505b600081146200024f57806004819055505b5050505062000934565b6000604051905090565b600080fd5b600080fd5b600080fd5b600080fd5b6000601f19601f8301169050919050565b7f4e487b7100000000000000000000000000000000000000000000000000000000600052604160045260246000fd5b620002c28262000277565b810181811067ffffffffffffffff82111715620002e457620002e362000288565b5b80604052505050565b6000620002f962000259565b9050620003078282620002b7565b919050565b600067ffffffffffffffff8211156200032a576200032962000288565b5b620003358262000277565b9050602081019050919050565b60005b838110156200036257808201518184015260208101905062000345565b60008484015250505050565b6000620003856200037f846200030c565b620002ed565b905082815260208101848484011115620003a457620003a362000272565b5b620003b184828562000342565b509392505050565b600082601f830112620003d157620003d06200026d565b5b8151620003e38482602086016200036e565b91505092915050565b6000819050919050565b6200040181620003ec565b81146200040d57600080fd5b50565b6000815190506200042181620003f6565b92915050565b6000806000806080858703121562000444576200044362000263565b5b600085015167ffffffffffffffff81111562000465576200046462000268565b5b6200047387828801620003b9565b945050602085015167ffffffffffffffff81111562000497576200049662000268565b5b620004a587828801620003b9565b9350506040620004b88782880162000410565b9250506060620004cb8782880162000410565b91505092959194509250565b7f4e487b7100000000000000000000000000000000000000000000000000000000600052602160045260246000fd5b600081519050919050565b7f4e487b7100000000000000000000000000000000000000000000000000000000600052602260045260246000fd5b600060028204905060018216806200055957607f821691505b6020821081036200056f576200056e62000511565b5b50919050565b60008190508160005260206000209050919050565b60006020601f8301049050919050565b600082821b905092915050565b600060088302620005d97fffffffffffffffffffffffffffffffffffffffffffffffffffffffffffffffff826200059a565b620005e586836200059a565b95508019841693508086168417925050509392505050565b6000819050919050565b600062000628620006226200061c84620003ec565b620005fd565b620003ec565b9050919050565b6000819050919050565b620006448362000607565b6200065c62000653826200062f565b848454620005a7565b825550505050565b600090565b6200067362000664565b6200068081848462000639565b505050565b5b81811015620006a8576200069c60008262000669565b60018101905062000686565b5050565b601f821115620006f757620006c18162000575565b620006cc846200058a565b81016020851015620006dc578190505b620006f4620006eb856200058a565b83018262000685565b50505b505050565b600082821c905092915050565b60006200071c60001984600802620006fc565b1980831691505092915050565b600062000737838362000709565b9150826002028217905092915050565b620007528262000506565b67ffffffffffffffff8111156200076e576200076d62000288565b5b6200077a825462000540565b62000787828285620006ac565b600060209050601f831160018114620007bf5760008415620007aa578287015190505b620007b6858262000729565b86555062000826565b601f198416620007cf8662000575565b60005b82811015620007f957848901518255600182019150602085019450602081019050620007d2565b8683101562000819578489015162000815601f89168262000709565b8355505b6001600288020188555050505b505050505050565b7f4e487b7100000000000000000000000000000000000000000000000000000000600052601160045260246000fd5b60006200086a82620003ec565b91506200087783620003ec565b92508282019050808211156200089257620008916200082e565b5b92915050565b600081905092915050565b50565b6000620008b560008362000898565b9150620008c282620008a3565b600082019050919050565b6000620008da82620008a6565b9150819050919050565b6000620008f18262000506565b620008fd818562000898565b93506200090f81856020860162000342565b80840191505092915050565b6000620009298284620008e4565b915081905092915050565b61206380620009446000396000f3fe608060405234801561001057600080fd5b50600436106101165760003560e01c806388ae10b1116100a2578063c19d93fb11610071578063c19d93fb1461028a578063c5539cc2146102a8578063da60f7b1146102d9578063ef00242314610309578063f8394d631461032557610116565b806388ae10b1146102125780638f32d59b14610230578063a3ec138d1461024e578063b830a3bc1461028057610116565b8063462e91ec116100e9578063462e91ec1461017f57806349e1c0ca1461019b5780634c105d1b146101ba5780635f5300ff146101d657806367529652146101f457610116565b80630724fda91461011b5780630cd2f9e414610139578063110842cb146101575780632495c0ce14610175575b600080fd5b610123610355565b6040516101309190611430565b60405180910390f35b6101416103e3565b60405161014e919061146b565b60405180910390f35b61015f6103e9565b60405161016c9190611430565b60405180910390f35b61017d610477565b005b610199600480360381019061019491906115cf565b61077b565b005b6101a361098f565b6040516101b1929190611618565b60405180910390f35b6101d460048036038101906101cf91906116a6565b610ac1565b005b6101de610d21565b6040516101eb919061146b565b60405180910390f35b6101fc610d27565b604051610209919061146b565b60405180910390f35b61021a610d2d565b604051610227919061146b565b60405180910390f35b610238610d33565b60405161024591906116ee565b60405180910390f35b610268600480360381019061026391906116a6565b610d8a565b60405161027793929190611709565b60405180910390f35b610288610e56565b005b610292610f89565b60405161029f91906117be565b60405180910390f35b6102c260048036038101906102bd91906115cf565b610f9c565b6040516102d09291906117d9565b60405180910390f35b6102f360048036038101906102ee919061182e565b610fe3565b6040516103009190611430565b60405180910390f35b610323600480360381019061031e91906115cf565b611083565b005b61033f600480360381019061033a919061182e565b61136d565b60405161034c919061186a565b60405180910390f35b60018054610362906118b4565b80601f016020809104026020016040519081016040528092919081815260200182805461038e906118b4565b80156103db5780601f106103b0576101008083540402835291602001916103db565b820191906000526020600020905b8154815290600101906020018083116103be57829003601f168201915b505050505081565b60045481565b600280546103f6906118b4565b80601f0160208091040260200160405190810160405280929190818152602001828054610422906118b4565b801561046f5780601f106104445761010080835404028352916020019161046f565b820191906000526020600020905b81548152906001019060200180831161045257829003601f168201915b505050505081565b60008054906101000a900473ffffffffffffffffffffffffffffffffffffffff1673ffffffffffffffffffffffffffffffffffffffff163373ffffffffffffffffffffffffffffffffffffffff1614610505576040517f08c379a00000000000000000000000000000000000000000000000000000000081526004016104fc90611931565b60405180910390fd5b600180600281111561051a57610519611747565b5b600b60009054906101000a900460ff16600281111561053c5761053b611747565b5b1461057c576040517f08c379a0000000000000000000000000000000000000000000000000000000008152600401610573906119c3565b60405180910390fd5b6002600b60006101000a81548160ff021916908360028111156105a2576105a1611747565b5b021790555060006009600080815260200190815260200160002080546105c7906118b4565b80601f01602080910402602001604051908101604052809291908181526020018280546105f3906118b4565b80156106405780601f1061061557610100808354040283529160200191610640565b820191906000526020600020905b81548152906001019060200180831161062357829003601f168201915b505050505090506000600190505b600a54811015610766576008826040516106689190611a1f565b90815260200160405180910390206001015460086009600084815260200190815260200160002060405161069c9190611ace565b9081526020016040518091039020600101541115610753576009600082815260200190815260200160002080546106d2906118b4565b80601f01602080910402602001604051908101604052809291908181526020018280546106fe906118b4565b801561074b5780601f106107205761010080835404028352916020019161074b565b820191906000526020600020905b81548152906001019060200180831161072e57829003601f168201915b505050505091505b808061075e90611b14565b91505061064e565b5080600c90816107769190611cf3565b505050565b60008054906101000a900473ffffffffffffffffffffffffffffffffffffffff1673ffffffffffffffffffffffffffffffffffffffff163373ffffffffffffffffffffffffffffffffffffffff1614610809576040517f08c379a000000000000000000000000000000000000000000000000000000000815260040161080090611931565b60405180910390fd5b600080600281111561081e5761081d611747565b5b600b60009054906101000a900460ff1660028111156108405761083f611747565b5b14610880576040517f08c379a0000000000000000000000000000000000000000000000000000000008152600401610877906119c3565b60405180910390fd5b6008826040516108909190611a1f565b908152602001604051809103902060000160009054906101000a900460ff16156108ef576040517f08c379a00000000000000000000000000000000000000000000000000000000081526004016108e690611e37565b60405180910390fd5b60016008836040516109019190611a1f565b908152602001604051809103902060000160006101000a81548160ff021916908315150217905550600060088360405161093b9190611a1f565b9081526020016040518091039020600101819055508160096000600a54815260200190815260200160002090816109729190611cf3565b50600a600081548092919061098690611b14565b91905055505050565b6060600060028060028111156109a8576109a7611747565b5b600b60009054906101000a900460ff1660028111156109ca576109c9611747565b5b14610a0a576040517f08c379a0000000000000000000000000000000000000000000000000000000008152600401610a01906119c3565b60405180910390fd5b600c8054610a17906118b4565b80601f0160208091040260200160405190810160405280929190818152602001828054610a43906118b4565b8015610a905780601f10610a6557610100808354040283529160200191610a90565b820191906000526020600020905b815481529060010190602001808311610a7357829003601f168201915b505050505092506008600c604051610aa89190611ace565b9081526020016040518091039020600101549150509091565b60008054906101000a900473ffffffffffffffffffffffffffffffffffffffff1673ffffffffffffffffffffffffffffffffffffffff163373ffffffffffffffffffffffffffffffffffffffff1614610b4f576040517f08c379a0000000000000000000000000000000000000000000000000000000008152600401610b4690611931565b60405180910390fd5b6000806002811115610b6457610b63611747565b5b600b60009054906101000a900460ff166002811115610b8657610b85611747565b5b14610bc6576040517f08c379a0000000000000000000000000000000000000000000000000000000008152600401610bbd906119c3565b60405180910390fd5b600560008373ffffffffffffffffffffffffffffffffffffffff1673ffffffffffffffffffffffffffffffffffffffff16815260200190815260200160002060000160009054906101000a900460ff1615610c56576040517f08c379a0000000000000000000000000000000000000000000000000000000008152600401610c4d90611ec9565b60405180910390fd5b6001600560008473ffffffffffffffffffffffffffffffffffffffff1673ffffffffffffffffffffffffffffffffffffffff16815260200190815260200160002060000160006101000a81548160ff0219169083151502179055508160066000600754815260200190815260200160002060006101000a81548173ffffffffffffffffffffffffffffffffffffffff021916908373ffffffffffffffffffffffffffffffffffffffff16021790555060076000815480929190610d1890611b14565b91905055505050565b60075481565b600a5481565b60035481565b60008060009054906101000a900473ffffffffffffffffffffffffffffffffffffffff1673ffffffffffffffffffffffffffffffffffffffff163373ffffffffffffffffffffffffffffffffffffffff1614905090565b60056020528060005260406000206000915090508060000160009054906101000a900460ff16908060000160019054906101000a900460ff1690806001018054610dd3906118b4565b80601f0160208091040260200160405190810160405280929190818152602001828054610dff906118b4565b8015610e4c5780601f10610e2157610100808354040283529160200191610e4c565b820191906000526020600020905b815481529060010190602001808311610e2f57829003601f168201915b5050505050905083565b60008054906101000a900473ffffffffffffffffffffffffffffffffffffffff1673ffffffffffffffffffffffffffffffffffffffff163373ffffffffffffffffffffffffffffffffffffffff1614610ee4576040517f08c379a0000000000000000000000000000000000000000000000000000000008152600401610edb90611931565b60405180910390fd5b6000806002811115610ef957610ef8611747565b5b600b60009054906101000a900460ff166002811115610f1b57610f1a611747565b5b14610f5b576040517f08c379a0000000000000000000000000000000000000000000000000000000008152600401610f52906119c3565b60405180910390fd5b6001600b60006101000a81548160ff02191690836002811115610f8157610f80611747565b5b021790555050565b600b60009054906101000a900460ff1681565b6008818051602081018201805184825260208301602085012081835280955050505050506000915090508060000160009054906101000a900460ff16908060010154905082565b60096020528060005260406000206000915090508054611002906118b4565b80601f016020809104026020016040519081016040528092919081815260200182805461102e906118b4565b801561107b5780601f106110505761010080835404028352916020019161107b565b820191906000526020600020905b81548152906001019060200180831161105e57829003601f168201915b505050505081565b600560003373ffffffffffffffffffffffffffffffffffffffff1673ffffffffffffffffffffffffffffffffffffffff16815260200190815260200160002060000160009054906101000a900460ff16611112576040517f08c379a000000000000000000000000000000000000000000000000000000000815260040161110990611f35565b60405180910390fd5b600180600281111561112757611126611747565b5b600b60009054906101000a900460ff16600281111561114957611148611747565b5b14611189576040517f08c379a0000000000000000000000000000000000000000000000000000000008152600401611180906119c3565b60405180910390fd5b600560003373ffffffffffffffffffffffffffffffffffffffff1673ffffffffffffffffffffffffffffffffffffffff16815260200190815260200160002060000160019054906101000a900460ff1615611219576040517f08c379a000000000000000000000000000000000000000000000000000000000815260040161121090611fa1565b60405180910390fd5b6008826040516112299190611a1f565b908152602001604051809103902060000160009054906101000a900460ff16611287576040517f08c379a000000000000000000000000000000000000000000000000000000000815260040161127e9061200d565b60405180910390fd5b6008826040516112979190611a1f565b908152602001604051809103902060010160008154809291906112b990611b14565b91905055506001600560003373ffffffffffffffffffffffffffffffffffffffff1673ffffffffffffffffffffffffffffffffffffffff16815260200190815260200160002060000160016101000a81548160ff02191690831515021790555081600560003373ffffffffffffffffffffffffffffffffffffffff1673ffffffffffffffffffffffffffffffffffffffff16815260200190815260200160002060010190816113689190611cf3565b505050565b60066020528060005260406000206000915054906101000a900473ffffffffffffffffffffffffffffffffffffffff1681565b600081519050919050565b600082825260208201905092915050565b60005b838110156113da5780820151818401526020810190506113bf565b60008484015250505050565b6000601f19601f8301169050919050565b6000611402826113a0565b61140c81856113ab565b935061141c8185602086016113bc565b611425816113e6565b840191505092915050565b6000602082019050818103600083015261144a81846113f7565b905092915050565b6000819050919050565b61146581611452565b82525050565b6000602082019050611480600083018461145c565b92915050565b6000604051905090565b600080fd5b600080fd5b600080fd5b600080fd5b7f4e487b7100000000000000000000000000000000000000000000000000000000600052604160045260246000fd5b6114dc826113e6565b810181811067ffffffffffffffff821117156114fb576114fa6114a4565b5b80604052505050565b600061150e611486565b905061151a82826114d3565b919050565b600067ffffffffffffffff82111561153a576115396114a4565b5b611543826113e6565b9050602081019050919050565b82818337600083830152505050565b600061157261156d8461151f565b611504565b90508281526020810184848401111561158e5761158d61149f565b5b611599848285611550565b509392505050565b600082601f8301126115b6576115b561149a565b5b81356115c684826020860161155f565b91505092915050565b6000602082840312156115e5576115e4611490565b5b600082013567ffffffffffffffff81111561160357611602611495565b5b61160f848285016115a1565b91505092915050565b6000604082019050818103600083015261163281856113f7565b9050611641602083018461145c565b9392505050565b600073ffffffffffffffffffffffffffffffffffffffff82169050919050565b600061167382611648565b9050919050565b61168381611668565b811461168e57600080fd5b50565b6000813590506116a08161167a565b92915050565b6000602082840312156116bc576116bb611490565b5b60006116ca84828501611691565b91505092915050565b60008115159050919050565b6116e8816116d3565b82525050565b600060208201905061170360008301846116df565b92915050565b600060608201905061171e60008301866116df565b61172b60208301856116df565b818103604083015261173d81846113f7565b9050949350505050565b7f4e487b7100000000000000000000000000000000000000000000000000000000600052602160045260246000fd5b6003811061178757611786611747565b5b50565b600081905061179882611776565b919050565b60006117a88261178a565b9050919050565b6117b88161179d565b82525050565b60006020820190506117d360008301846117af565b92915050565b60006040820190506117ee60008301856116df565b6117fb602083018461145c565b9392505050565b61180b81611452565b811461181657600080fd5b50565b60008135905061182881611802565b92915050565b60006020828403121561184457611843611490565b5b600061185284828501611819565b91505092915050565b61186481611668565b82525050565b600060208201905061187f600083018461185b565b92915050565b7f4e487b7100000000000000000000000000000000000000000000000000000000600052602260045260246000fd5b600060028204905060018216806118cc57607f821691505b6020821081036118df576118de611885565b5b50919050565b7f4f6e6c7920436f6e74726163744f776e65722063616e20646f20746869732e00600082015250565b600061191b601f836113ab565b9150611926826118e5565b602082019050919050565b6000602082019050818103600083015261194a8161190e565b9050919050565b7f596f752063616e6e6f7420646f2074686973206f6e207468697320737461746560008201527f2e00000000000000000000000000000000000000000000000000000000000000602082015250565b60006119ad6021836113ab565b91506119b882611951565b604082019050919050565b600060208201905081810360008301526119dc816119a0565b9050919050565b600081905092915050565b60006119f9826113a0565b611a0381856119e3565b9350611a138185602086016113bc565b80840191505092915050565b6000611a2b82846119ee565b915081905092915050565b60008190508160005260206000209050919050565b60008154611a58816118b4565b611a6281866119e3565b94506001821660008114611a7d5760018114611a9257611ac5565b60ff1983168652811515820286019350611ac5565b611a9b85611a36565b60005b83811015611abd57815481890152600182019150602081019050611a9e565b838801955050505b50505092915050565b6000611ada8284611a4b565b915081905092915050565b7f4e487b7100000000000000000000000000000000000000000000000000000000600052601160045260246000fd5b6000611b1f82611452565b91507fffffffffffffffffffffffffffffffffffffffffffffffffffffffffffffffff8203611b5157611b50611ae5565b5b600182019050919050565b60006020601f8301049050919050565b600082821b905092915050565b600060088302611ba97fffffffffffffffffffffffffffffffffffffffffffffffffffffffffffffffff82611b6c565b611bb38683611b6c565b95508019841693508086168417925050509392505050565b6000819050919050565b6000611bf0611beb611be684611452565b611bcb565b611452565b9050919050565b6000819050919050565b611c0a83611bd5565b611c1e611c1682611bf7565b848454611b79565b825550505050565b600090565b611c33611c26565b611c3e818484611c01565b505050565b5b81811015611c6257611c57600082611c2b565b600181019050611c44565b5050565b601f821115611ca757611c7881611a36565b611c8184611b5c565b81016020851015611c90578190505b611ca4611c9c85611b5c565b830182611c43565b50505b505050565b600082821c905092915050565b6000611cca60001984600802611cac565b1980831691505092915050565b6000611ce38383611cb9565b9150826002028217905092915050565b611cfc826113a0565b67ffffffffffffffff811115611d1557611d146114a4565b5b611d1f82546118b4565b611d2a828285611c66565b600060209050601f831160018114611d5d5760008415611d4b578287015190505b611d558582611cd7565b865550611dbd565b601f198416611d6b86611a36565b60005b82811015611d9357848901518255600182019150602085019450602081019050611d6e565b86831015611db05784890151611dac601f891682611cb9565b8355505b6001600288020188555050505b505050505050565b7f5468652063616e6469646174652068617320616c7265616479206265656e206160008201527f6464656400000000000000000000000000000000000000000000000000000000602082015250565b6000611e216024836113ab565b9150611e2c82611dc5565b604082019050919050565b60006020820190508181036000830152611e5081611e14565b9050919050565b7f54686520766f7465722068617320616c7265616479206265656e20616464656460008201527f2e00000000000000000000000000000000000000000000000000000000000000602082015250565b6000611eb36021836113ab565b9150611ebe82611e57565b604082019050919050565b60006020820190508181036000830152611ee281611ea6565b9050919050565b7f596f7520617265206e6f7420656c696769626c6520746f20766f74652e000000600082015250565b6000611f1f601d836113ab565b9150611f2a82611ee9565b602082019050919050565b60006020820190508181036000830152611f4e81611f12565b9050919050565b7f596f752063616e206f6e6c7920766f7465206f6e636500000000000000000000600082015250565b6000611f8b6016836113ab565b9150611f9682611f55565b602082019050919050565b60006020820190508181036000830152611fba81611f7e565b9050919050565b7f496e76616c69642043616e6469646174652e0000000000000000000000000000600082015250565b6000611ff76012836113ab565b915061200282611fc1565b602082019050919050565b6000602082019050818103600083015261202681611fea565b905091905056fea264697066735822122083de17d1a4b5581d0795f15a15628779c65d812f1dc37c3b318072894dd8cf9164736f6c63430008120033",
  "linkReferences": {},
  "deployedLinkReferences": {}
}